:08000000803102288731FD2F39
:100E0A00623051018D008F019101023093009001EF
:100E1A00920108004F0196019701980199019A01E0
:100E2A009B019C019D010800F000700843018C00A1
:100E3A004E010F1C212F222F1D2F0F1043010C08CA
:100E4A00080087310F278731873133278731873168
:100E5A0076278731873105278731080013307D01CE
:100E6A00C5001430C60013307E01A3001430A5005B
:100E7A00403043018F000230900001308D00400164
:100E8A0094114301901208008731262787314001C7
:100E9A001A1500308731AA278731F50140019916C2
:100EAA002130F4007630890B582FF40B582F00327A
:100EBA00400199122130F4007630890B622FF40B2D
:100ECA00622F003240011A117508873119278731BC
:100EDA000130F4007408F50740011A15532F8031C8
:100EEA00022840019C01980199019A010830960054
:100EFA00FF309200DF309300D3309400E3307E015C
:100F0A00CE00DF30C300FF30B800E501C401B901EB
:100F1A00CF01E601BA01C501D001FF30BB00FF30A5
:100F2A00C600FF30D1003F30BC003F30C7003F3021
:100F3A00D20013307D01C50013307E01A3001430A6
:100F4A00A50014307D01C6000800F3004301901A81
:100F5A00AF2FB02FFC2F7308F000F101F035F10D1F
:100F6A00F035F10D0130700784000830713D80388A
:100F7A00850000088F007308F000F101F035F10DCB
:100F8A00F035F10D0030700784000830713D80386B
:100F9A0085000008900091017308F000F101F03516
:100FAA00F10DF035F10D0230700784000830713D03
:100FBA008038850000088D007308F000F101F035D3
:100FCA00F10DF035F10D0330700784000830713DE2
:100FDA00803885000008F200F20DF20DF20D400192
:100FEA0014087206F7397206940043019016080035
:0E0FFA0040018731492F023440340134003465
:020000040001F9
:08000000FF3FFF3FFF3FFF3F00
:0A000E00EC3FFF3F9F3FFF3FFF3F25
:00000001FF
